:020000040800F2
:10000000081E0020090200080B190008FB16000852
:1000100000000000000000000000000000000000E0
:10002000000000000000000000000000251900088A
:1000300000000000000000008F01000829190008DE
:100040001B020008000000001B0200081B02000841
:100050001B0200081B020008ED060008F706000856
:10006000000000001B0200081B0200081B02000821
:100070001B020008C11900081B0200080000000054
:100080001B020008D119000800000000B119000887
:100090001B0200081B0200081B0200081B020008CC
:1000A0001B0200081B0200081B0200081B020008BC
:1000B0001B02000800F002F800F03EF80CA030C867
:1000C000083824182D18A246671EAB4654465D46D4
:1000D000AC4201D100F030F87E460F3E0FCCB64660
:1000E0000126334200D0FB1AA246AB4633431847E1
:1000F000743C0000943C0000103A02D378C878C1E8
:10010000FAD8520701D330C830C101D504680C6059
:10011000704700000023002400250026103A01D378
:1001200078C1FBD8520700D330C100D50B607047AF
:100130001FB51FBD10B510BD00F01DFA1146FFF729
:10014000F7FF02F045F800F035FA03B4FFF7F2FFCD
:1001500003BC00F03BFA0000084B19680868203027
:1001600080F30988022080F31488BFF36F8F3FBCAF
:10017000AE4608BC04BC62B6184700003000002040
:10018000EFF3108072B6704780F310887047EFF37A
:1001900009800E4B1A6820381060F0C044464D4666
:1001A00056465F46F0C008B572B602F075FF62B6FB
:1001B0000CBC116808681030F0C8A046A946B246C9
:1001C000BB4680F309882038F0C81847300000206B
:1001D00070B505460C46164602E00FCC0FC5103E22
:1001E000102EFAD2082E02D303CC03C5083E042EEB
:1001F00007D301CC01C5361F03E021782970641CA8
:100200006D1C761EF9D270BD07488047074800472D
:10021000FEE7FEE7FEE7FEE7FEE7FEE704480549E6
:10022000054A064B70470000AD190008B5000008EC
:1002300008180020081E0020081A0020081A0020B4
:10024000FEB5054610460C46184373D0AE468C46A4
:100250000020AD1A01469C4167D366460027012461
:100260003D46B61A9D4102D313463A4621246546BF
:1002700076462F04360C3E432D0CB61A9D4104D30E
:10028000150C1B042B4312041034654676462F06CA
:10029000360A3E432D0AB61A9D4104D3150E1B02A1
:1002A0002B4312020834654676462F0736093E4333
:1002B0002D09B61A9D4104D3150F1B012B431201C2
:1002C000241D65467646AF07B6083E43AD08B61A0C
:1002D0009D4104D3950F9B002B439200A41C6546BF
:1002E0007646EF0776083E436D08B61A9D411AD34D
:1002F00092185B41641C16E0001876466546494139
:10030000B71A9D410191009009D36046B11A9841F6
:100310008E468446009801990025401C6941DD07FE
:1003200052082A435B08641EE6D57246634603B052
:10033000F0BDFFE700200146C046C0462A462346DE
:10034000F5E7F8B5042A2CD3830712D00B78491CA3
:100350000370401C521E83070BD00B78491C03709E
:10036000401C521E830704D00B78491C0370401CAC
:10037000521E8B079B0F05D0C91ADF002023DE1BFE
:1003800008C90AE0FFF724FFF8BD1D4608C9FD4073
:100390001C46B4402C4310C0121F042AF5D2F308A7
:1003A000C91A521EF0D40B78491C0370401C521E0F
:1003B000EAD40B78491C0370401C012AE4D4097864
:1003C0000170F8BDD2B210B513029A1813049A182E
:1003D00000F00EF810BD01E004C0091F0429FBD293
:1003E0008B0701D50280801CC90700D002707047BE
:1003F00000290BD0C30702D00270401C491E0229FD
:1004000004D3830702D50280801C891EE3E7002203
:10041000EEE70022DFE7002203098B422CD3030A18
:100420008B4211D300239C464EE003460B433CD441
:10043000002243088B4231D303098B421CD3030AA9
:100440008B4201D394463FE0C3098B4201D3CB01D9
:10045000C01A524183098B4201D38B01C01A524109
:1004600043098B4201D34B01C01A524103098B420D
:1004700001D30B01C01A5241C3088B4201D3CB00F8
:10048000C01A524183088B4201D38B00C01A5241DB
:1004900043088B4201D34B00C01A5241411A00D28B
:1004A00001465241104670475DE0CA0F00D04942F4
:1004B000031000D34042534000229C4603098B4264
:1004C0002DD3030A8B4212D3FC22890112BA030AEC
:1004D0008B420CD3890192118B4208D3890192116E
:1004E0008B4204D389013AD0921100E08909C309F3
:1004F0008B4201D3CB01C01A524183098B4201D3F5
:100500008B01C01A524143098B4201D34B01C01ADF
:10051000524103098B4201D30B01C01A5241C30857
:100520008B4201D3CB00C01A524183088B4201D3C6
:100530008B00C01A5241D9D243088B4201D34B00E1
:10054000C01A5241411A00D20146634652415B1023
:10055000104601D34042002B00D549427047634604
:100560005B1000D3404201B50020C046C04602BD2A
:10057000704770477047754600F024F8AE46050096
:1005800069465346C008C000854618B020B5FFF73D
:1005900045FE60BC00274908B6460026C0C5C0C558
:1005A000C0C5C0C5C0C5C0C5C0C5C0C5403D490067
:1005B0008D46704710B50446C046C0462046FFF73A
:1005C000C4FD10BD00487047A41700200149182041
:1005D000ABBEFEE72600020070470000F8B50446F7
:1005E00000200090206881688907890F012905D1C2
:1005F0000168C90731D1C16809042ED48168184A3D
:1006000010261140012500291AD1816829438160F3
:10061000154814490068FFF7FEFE00E0401E0090F8
:100620000028FBD100F0C8FB074611E000F0C4FB36
:10063000C01B02280CD920680068C043C00707D03F
:10064000A06B3043A063E06B2843E0630120F8BD5A
:1006500020680068C043C007E8D10020F8BD000052
:100660001700008040420F002C00002008B5002534
:10067000ED436846009501F021FC084C2A46002114
:10068000204601F0F3FE694601F0ACFA204601F085
:1006900057FE0A2001F002FEF0E7000000DF7000C4
:1006A0000025ED437F2424042A460021204601F042
:1006B000DDFE01F04BFB204601F042FE0A2001F076
:1006C000EDFDF1E710B500680549884207D10548FE
:1006D0000078012803D14103034800F05EFB10BD00
:1006E00000100040000000200008004810B508205D
:1006F00000F070FA10BD10B5102000F06BFAFF206A
:10070000013000F067FA0120400200F063FA012096
:10071000800200F05FFA0120C00200F05BFA0120C5
:10072000000300F057FA0120800300F053FA012083
:10073000C00300F04FFA10BD012001F0AFFDFBE750
:10074000F8B50024274625461548009400F004FA21
:1007500000260121124800F09BF9002805D110481D
:1007600000F0AAF8C7196D1CEDB2761CF6B20A2E7D
:10077000EFD3002D07D029463846FFF74CFE80B254
:100780000090084903E00098FBE7641C24B2620073
:100790008A5A824201D9D22CF7DB283C20B2F8BD1C
:1007A000A00000209C3A0008F8B50025044620343B
:1007B0000095227D012A39D00122227503689E68A6
:1007C000760767D4384F4E68BE424DD09E6A0F7888
:1007D000BA4016439E620123C26A1B079A421FD089
:1007E000012A1DD0022A1BD0032A19D0042A17D0AF
:1007F000052A15D0062A13D0072A11D002688B6863
:1008000056697607760FB3420AD05369DB08DB00DE
:100810005361006842690B7A5B075B0F1A434261C0
:100820000A68102A04D0112A02D038E00220F8BD4C
:100830001E488368102A07D0012292051343836063
:100840000868102803D02AE00122D205F6E71948EB
:1008500017490068FFF7DFFD0A21484300E0401E0A
:1008600000900028FBD11AE0986A0E78B2409043BD
:1008700098620968102901D0112910D10B488268AB
:10088000102904D0012189058A43826007E00121F3
:10089000C905F9E7816B20221143816301250020FE
:1008A00020752846F8BD0000011000000027014017
:1008B00040420F002C0000200068006C70470000D0
:1008C000F8B500260446002805D0A06B2546203543
:1008D000002802D007E00120F8BD0020E063287561
:1008E000204600F0A9F8A06B1022C006002870DB9B
:1008F0002068816849076CD4A16B130199430223D6
:100900001943A16381688907890F012905D101680D
:10091000C9070FD1C16809040CD4C16818239943D1
:10092000A3681943C1602068016963688900890868
:10093000194301612068C1683D4B1940C160207EA8
:10094000617E8003C9030843A17E4B031843A36A59
:10095000012B02D001231B0300E000231843E368AE
:1009600018432369022B09D0002318432B79E57E15
:100970005B0018430123012D02D00AE00423F4E7B1
:10098000002927D0A16B20252943A163E16B1943DE
:10099000E163E1690D46FF3DC23D02D0256A29436E
:1009A00008432168CD680543CD600125E16A2D0724
:1009B000A94213D0012911D002290FD003290DD04B
:1009C00004290BD0052909D0062907D0072905D00D
:1009D00010E028E0012109040843DAE721684D69A5
:1009E000ED08ED004D6121684D69A78D7F077F0FF0
:1009F0003D434D612168C9680E4D2940814207D1B0
:100A00000020E063A06B80088000401CA06308E029
:100A1000A06B022188431043A063E06B1843E0639E
:100A200001263046F8BDA06B1043A063F8E7000034
:100A30001902FEFFE7FF3F8310B586B0044614217C
:100A40006846FFF7E6FC10492068884219D10F4834
:100A5000826941150A43826182690A4005924269AE
:100A600009020A4342614069084005900420009051
:100A7000032001900020029009206946C00600F082
:100A8000B5F806B010BD000000240140001002407F
:100A9000F8B504464069254620350E4608280BD097
:100AA0002068C068C00709D0A06B20210843A0635C
:100AB000002028750120F8BD082700E00C2700F071
:100AC0007BF9009015E0701C13D0002E05D000F0CB
:100AD00073F90099401AB0420BD920680068384277
:100AE00007D1A06B04210843A063002028750320D0
:100AF000F8BD206800683842E5D0A06B01214902AA
:100B00000843A0632068C16809058A0F0C21002AE8
:100B10001AD1A27E002A17D10268120714D5826862
:100B200053070122002B08DB43688B434360A06B13
:100B3000130298431043A06306E0A06B20231843E0
:100B4000A063E06B1043E063207E002801D12068A1
:100B500001600020F8BD000070B504462168002047
:100B60008968490721D425462035297D01291CD0D3
:100B700001212975617E012904D02046FFF72EFD51
:100B8000002811D1A16B0A4A1140FF220132114302
:100B9000A1630021E163297522681C21116021688D
:100BA0008A6804231A438A6070BD022070BD000069
:100BB000FEF1FFFF10B5102807D0082804D0014629
:100BC0000348406801F010FC10BD02F05DFF10BD4D
:100BD0000C00002010B504494A69024202D0486165
:100BE000FFF7E8FF10BD000000040140F8B5002346
:100BF00003240125BAE02E469E40B44632407CD004
:100C00000E79B607B60F012E01D0022E17D18668D5
:100C10002746B6465E00B74000967646BE43B646C7
:100C2000CF68009EB7407646374387604668674680
:100C3000BE430F79FF06FF0F9F40374347600E7991
:100C4000F643B6070ED0C6682746B4465E00B646E1
:100C5000B7406646BE43B4468F687646B7406646A0
:100C60003743C7600E79B607B60F022E14D1DE08DF
:100C7000B60036180096366A5F07B446FE0E0F2798
:100C8000B646B7406646BE43B4460F697646B7409F
:100C900066463743009E376206682746B4465E00C4
:100CA000B646B7406646BE430F79B446BF07BF0F8E
:100CB0007646B7406646374307604E68B603B60FC0
:100CC00053D02D4FBE692E43BE61BE699F08F60703
:100CD000F60F2A4EBF00BE190096B6680F27B4461D
:100CE0009E07360FB646B7406646BE430927FF0645
:100CF000B446B84202D1002710E036E0204FB84297
:100D000001D101270AE01F4FB84201D1022705E0B7
:100D10001D4FB84201D1032700E005277646B740B2
:100D200066463743009EB760184E36684F68964354
:100D3000FF0300D51643154F3E607E684F6896430B
:100D4000BF0300D51643114F7E60BE684F689643BF
:100D5000FF0200D516430D4FBE60FE684F689643F4
:100D6000BF0200D51643094AD6605B1C0A681646C6
:100D7000DE4000D03FE7F8BD001002400000014017
:100D80000004004800080048000C0048000401402E
:100D90000069084000D001207047426913460B40AB
:100DA0001B0491430B4383617047002A01D081618A
:100DB00070478162704700000148806870470000FA
:100DC00020000020024881680278891881607047FD
:100DD0002000002010B50648016810221143016070
:100DE000032000F007F800F053F8002010BD0000C9
:100DF0000020024030B505461F4887B08269C11403
:100E00000A43826180690840009005A901A800F0AA
:100E1000EBF80498002815D000F002F940001749BB
:100E2000FFF7F9FA411E1748154A0260164AC260D8
:100E30004160002101618160816100F007FB0400D5
:100E400003D015E000F0ECF8E9E70E4800F050FBA5
:100E500004000DD10D2000F033F8042D07D200223C
:100E600029460D2000F038F80848056000E001240C
:100E7000204607B030BD00000010024040420F0085
:100E8000002C014070010020E70300002400002036
:100E900008B50A48816901221143816181691140C5
:100EA0000091C26901040A43C261C069002208407E
:100EB00003210090481F00F00FF808BD0010024009
:100EC000002805DBC106C90E0120884001490860E1
:100ED0007047000000E100E010B500F0EBFD10BD30
:100EE000F8B50F46060059D03A4D2868C007C00F24
:100EF000B84209D228684008400038432860286872
:100F0000C007C00FB84249D13068334C81070CD5B7
:100F1000400704D5606807210902084360606068E3
:100F2000F0218843B168084360603078C00726D05C
:100F3000706801280ED0216802280ED08907002988
:100F40002CDA61688908890001436160FFF734FF8A
:100F500000900DE021688903F1E78901EFE7FFF7D1
:100F60002BFF0099411A1D48814201D90320F8BD89
:100F700060680C210840716889008842EFD12868B8
:100F8000C007C00FB8420BD928684008400038435A
:100F900028602868C007C00FB84201D00120F8BD02
:100FA0003078400706D56068072109028843F16858
:100FB0000843606000F044F86168094A0906090FB7
:100FC000515CC840074908600320FFF713FF002069
:100FD000F8BD00000020024000100240881300000D
:100FE000F43C00082C00002010B5072202600A4AD9
:100FF00053689B079B0F43605368F0242340836032
:10100000526807231B021A40C26004480068C007E8
:10101000C00F086010BD0000001002400020024018
:101020000448054900684968044A4905490F515C6C
:10103000C84070472C00002000100240043D00080A
:1010400010B514A30FCB88B06C460FC415A30FCBFB
:101050000FC4184A51680C200B4603401648042B55
:1010600016D0082B14D18B021B0F6C46E45CD26A9D
:1010700004AB1207120F9A5CC90305D50023194669
:10108000FFF7DEF8214601E020460C4900F0ECFCB9
:1010900008B010BD02030405060708090A0B0C0D71
:1010A0000E0F10100102030405060708090A0B0CB5
:1010B0000D0E0F100010024000127A0000093D00D2
:1010C000FEB5040070D02078DC4DC0074AD06868B7
:1010D0000007800F012807D068680007800F0228EA
:1010E00009D16868C00306D5286880033AD56068CE
:1010F0000028E7D036E06168012914D0012080047F
:10110000002901D0052914D02A68012109048A4345
:101110002A602968814329606068002816D0FFF79B
:101120004BFE06460EE028680121090408432860AA
:10113000F2E7296801432960F5E7FFF73DFE801BD0
:1011400064286ED828688003F7D50BE0FFF734FEDB
:10115000064604E0FFF730FE801B6428F1D82868BB
:101160008003F7D420780126800700283CDA6868DD
:101170000007800F07D068680007800F022809D198
:101180006868C00306D42868800716D5E06801287F
:101190000AD112E0E0680028286816D030432860A1
:1011A000FFF70AFE074605E043E1FFF705FEC01B17
:1011B0000228C6D828688007F7D52868F821884310
:1011C0002169C900084328600EE0400840002860FB
:1011D000FFF7F2FD074604E0FFF7EEFDC01B022813
:1011E000AFD828688007F7D42078000722D5E069B7
:1011F0000028686A0ED030436862FFF7DDFD0746BD
:1012000004E0FFF7D9FDC01B02289AD8686A80075E
:10121000F7D50FE0400840006862FFF7CDFD0746B4
:1012200005E09DE0FFF7C8FDC01B022889D8686A69
:101230008007F7D4207804274007002860DA0020D0
:101240000190E869C00008D4E969B8060143E96182
:10125000E969014001200091019079480168C905C0
:1012600011D40168821511430160FFF7A5FD0090BC
:1012700005E0FFF7A1FD0099401A642870D8704876
:101280000068C005F5D5A06801280AD0002801D063
:10129000052810D0286A400840002862286AB84310
:1012A00001E0286A30432862A068002812D0FFF7C6
:1012B00083FD00900AE0286A38432862F1E7FFF7CF
:1012C0007BFD0099411A5F48814249D8286A80070E
:1012D000F5D50DE0FFF770FD009006E0FFF76CFD1F
:1012E0000099411A574881423AD8286A8007F5D4B4
:1012F0000198002804D0E969012000078143E961D1
:101300002078C00635D5606901280CD0401D686B77
:1013100023D038436863686B400840006863FFF778
:101320004BFD064622E0686B38436863686B3043C8
:101330006863FFF741FD064604E0FFF73DFD801BB3
:1013400002285BD8686B8007F7D5686BF821884363
:10135000A169C900084368630BE0B8436863F4E718
:101360004CE0FFF729FD801B022847D8686B8007F7
:10137000F7D4206A00285ED069680907890F02291E
:1013800042D0012636060228286805D0B0432860DE
:10139000FFF712FD044633E0B0432860FFF70CFD71
:1013A000074604E0FFF708FDC01B022826D828687E
:1013B0008001F7D4E86AE16A000900010843E862A5
:1013C000616AA06A084369683D2212049143084398
:1013D0006860286830432860FFF7EEFC044604E0AC
:1013E000FFF7EAFC001B022808D828688001F7D51F
:1013F00021E0FFF7E1FC001B022801D90320FEBD1C
:1014000028688001F5D416E00128F8D06868E96AF8
:1014100001221204636A02409A420AD10907E26A71
:10142000090F914205D10F2189040840A16A884221
:1014300001D00120FEBD0020FEBD000000100240D2
:1014400000700040881300007047704770B50400BA
:1014500005D025462035687F002802D006E001200F
:1014600070BD00202877204600F014F8022068772D
:10147000211D206800F0B4FA01204034A071A87743
:10148000E87720706070A070E070207160716877FC
:10149000002070BD08B5134A0168134891420DD170
:1014A000C26910210A43C261C0690022084000904D
:1014B00003211120FFF710FD11200FE00B4A91428C
:1014C0000ED1C26989150A43C261C0690022084071
:1014D000009011461320FFF7FFFC1320FFF7F0FCEC
:1014E00008BD000000100040001002400020004035
:1014F000014620314A7F012A01D001207047022293
:101500004A770268D36801210B43D3600068094A17
:10151000904205D0084A904202D0084A904204D135
:1015200082685207520F062A02D002680A430260FC
:1015300000207047002C01400004004000400140A2
:101540000168CA6852085200CA6001680A6A084BFA
:101550001A4207D10A6A9B101A4203D10A6852083C
:1015600052000A60012120304177002070470000BE
:1015700011110000704770B504460068016900252C
:10158000C9438907002915DBC168C943890711D4FC
:10159000E91E0161012020772068806980072046CC
:1015A00002D0FFF7E7FF04E000F096F8204600F0D5
:1015B00094F8257720680169C943490717D4C168A1
:1015C000C943490713D40421C9430161022020778C
:1015D000206880698005800F204602D0FFF7CAFF8F
:1015E00004E000F079F8204600F077F825772068CD
:1015F0000169C943090716D4C168C943090712D450
:101600000821C9430161042020772068C069800750
:10161000204602D0FFF7AEFF04E000F05DF8204660
:1016200000F05BF8257720680169C943C90617D423
:10163000C168C943C90613D41021C94301610820F8
:1016400020772068C0698005800F204602D0FFF710
:1016500091FF04E000F040F8204600F03EF82577C6
:1016600020680169C943C90708D1C168C943C907CE
:1016700004D1891E0161204600F030F8206801691C
:10168000C943090609D4C168C943090605D48021A4
:10169000C94301612046FFF7D7FE20680169C943AD
:1016A000490609D4C168C943490605D44021C94344
:1016B0000161204600F020F820680169C9438906CD
:1016C00009D4C168C943890605D42021C9430161F1
:1016D0002046FFF7BAFE70BD7047704710B504464C
:1016E00000680449884201D1FFF76CFB2046FEF7F1
:1016F000E9FF10BD002C01407047FEE70025084CB3
:10170000ED432A460021204600F0B0FE00F04CFCDC
:10171000204600F015FE0A2000F0C0FDF1E70000B1
:1017200000DF7F000EB50021174800910191029162
:10173000144A416002608160012204230C300EC013
:10174000017041708170FF23C170C2334360034652
:1017500081600833197102611838FFF7B1F8002869
:1017600001D072B6FEE702200090C002019007206F
:10177000029069460448FFF717F8002801D072B6B6
:10178000FEE70EBD00240140A0000020F0B587B0A8
:1017900014216846FEF73DFE4F4842690121C90405
:1017A0000A43426142690A400592426989100A432C
:1017B000426142690A400592426949000A43426116
:1017C00042690A400592426909010A43426140693F
:1017D000424E08404C120590002221463046FFF749
:1017E000E4FA3F4F092000223946C006FFF7DDFA30
:1017F000FF2100223A313B48FFF7D7FA0022C021EF
:101800003948FFF7D2FA009400240125019502948B
:10181000694630460394FFF7E9F90820009011204B
:1018200000040190092069460294C006FFF7DEF922
:101830001020212600903604092069460196029462
:10184000C006FFF7D3F9092002946946C006009745
:1018500001950394FFF7CAF9FF203A3000900294F3
:101860006946019503941F48FFF7C0F903208003E0
:1018700000906946019602951A48FFF7B7F91F20B4
:10188000000200900920694601960295C006FFF704
:10189000ADF9C02000900294694601950394124866
:1018A000FFF7A4F9680200900194694602940D487C
:1018B000FFF79CF9002203210620FFF70DFB06200D
:1018C000FFF7FEFA002203210720FFF705FB0720A0
:1018D000FFF7F6FA07B0F0BD00100240000800481C
:1018E000E080000000040048001400480022DF20CF
:1018F000D2430021000200F0B9FD01F0BBF900F075
:1019000005F80A2000F0CAFCF9E7FEE710B5FEF77B
:1019100017FF034908806420888000F019F910BD82
:10192000020000207047000010B5FEF729FC0446B5
:1019300001F0FAFE002803D00120034900074860A7
:101940002046FEF721FC10BD00ED00E030B591B05F
:1019500030216846FEF75DFD002412200F940090B0
:1019600001200D940390059010200E940490069091
:101970000520C00402250A900C94089509940B9444
:101980006846FFF79DFB002801D072B6FEE70720EE
:101990000C900E9401210D950F940CA8FFF7A0FA5E
:1019A000002801D072B6FEE711B030BD70470000CC
:1019B00010B50248FFF7DFFD10BD00002801002030
:1019C00010B50248FFF7D7FD10BD000070010020E0
:1019D00010B50248FFF7CFFD10BD0000E000002069
:1019E000F0B502681A4B1B4C984201D0A04203D1BB
:1019F0007025AA434D682A43174D184E184F984238
:101A00000AD0A04208D0174CA04205D0A84203D06B
:101A1000B04201D0B84205D11446032212029443C9
:101A2000CA6822438024A2434C69224302608A6828
:101A3000C2620A688262984205D0A84203D0B042CE
:101A400001D0B84201D10969016301214161F0BDB2
:101A5000002C0140000400400040014000440140CF
:101A60000048014000200040F8B5040C8BB2264627
:101A700082B25E430D0C1046370C58433604801971
:101A80000021794116466E43370C3604801979419E
:101A900026466E438919F8BD30B47446641E257815
:101AA000641CAB4200D21D46635D5B00E31830BC92
:101AB000184700008307FF22DB0E9A408907090EB2
:101AC0009940002808DB830809489B001B18186808
:101AD00090430843186070470007000F08388308D8
:101AE00004489B001B18D86990430843D86170478D
:101AF00000E400E000ED00E010B509200022202104
:101B0000C006FFF752F910BD10B5092001222021AF
:101B1000C006FFF74AF910BD10B50C484178491CC2
:101B200041704178052901D901214170417801298D
:101B300001D18178017041780078814202D8FFF7A5
:101B4000E3FF10BDFFF7D8FF10BD00000900002023
:101B500010B51F4881880288891A41800221415EA0
:101B6000322901DB052010E00221415E322903DA2F
:101B70000221415E2829F5DA0221415E282907DA8F
:101B80000221415E1E2903DB042000F023F810BD72
:101B90000221415E1E2905DA0221415E142901DB82
:101BA0000320F2E70221415E142905DA0221415E99
:101BB0000A2901DB0220E8E70221415E0A2905DA51
:101BC0000221415E002901DD0120DEE70020DCE783
:101BD000020000200249052800D9052088707047BE
:101BE00009000020F8B5002701250E46FF432D030C
:101BF000411B3C46A8425DD012DCFF38401E2AD073
:101C0000FF38401E2DD00125FF38AD02FF38801E61
:101C10002DD0A84210D1642000F040FB6D004CE0B4
:101C200003200003454D081A07D0401B0BD0DF21CD
:101C3000C903884200D13460F8BD642000F02EFB57
:101C400006E0012520E0642000F028FB0125ED03DB
:101C500029463B4811E0642000F020FBFF250135B8
:101C600008E0642000F01AFB01256D0202E0642008
:101C700000F014FB09202946C006FFF789F8012867
:101C8000DFD02C46DDE7022500F0E2F80128D3D1B1
:101C90000D2031680004814218D1601C16D02948FB
:101CA0002146006800F0A0FB7D20C00000F0F6FA9D
:101CB000214614E0642000F0F1FA09202946C0060C
:101CC000FFF766F80128DED02C46DCE70B22012066
:101CD00012048005914204D1621C18D101E01A4817
:101CE00010E0012901D1022D11D0481C03D0022D92
:101CF0000FD00129A0D0012D9ED1A14217D10321DF
:101D000010480905006800F06FFB3760F8BD014618
:101D1000E5E70D482143006800F066FB316809489B
:101D20002143006800F060FB01203060F8BD0548E9
:101D30002146006800F058FB7DE7000000400000ED
:101D4000000400480C0000201400002070B50F2390
:101D50001B040146C21A01207D250004ED009942B2
:101D600038D019DC234A244D891A1BD0814220D156
:101D7000224E002400F05CF8284600F08FFA00F0B4
:101D80003FF8284600F08AFA641CE4B2032CF1D331
:101D9000304600F083FAECE7101A0BD00321090556
:101DA000884206D100F044F8284600F077FA00F0A7
:101DB00027F870BD002400F03BF8284600F06EFACA
:101DC00000F01EF8284600F069FA641CE4B2032C07
:101DD000F1D370BD002400F02BF8284600F05EFA25
:101DE00000F00EF8284600F059FA641CE4B2032C07
:101DF000F1D370BD00000D00F401000010270000B9
:101E000010B50121002249030648FEF7CEFF06481F
:101E1000002404700548FFF793FB044800684462FF
:101E200010BD00000008004800000020E000002075
:101E300010B50549012008700448FFF759FB034914
:101E400000200968486210BD00000020E00000206A
:101E500070B509240121E40689022046FEF798FFA7
:101E60000546012149022046FEF792FF2E18124D29
:101E7000012189032846FEF78BFF3618FF21013127
:101E80002046FEF785FF3618012109032046FEF79C
:101E90007FFF361869012846FEF77AFF35180121C1
:101EA000C9022046FEF774FF2818052801D2002039
:101EB00070BD012070BD000000040048F8B5044664
:101EC000FFF7C6FF0126B603114D012802D03146A7
:101ED00028681AE009270121FF0609033846FEF7A2
:101EE00057FF0128F3D00121C9023846FEF750FF01
:101EF0000128ECD00D252D040648256029460068F0
:101F000000F072FA04482946006800F06DFAF8BD46
:101F1000140000200C0000201800002010B5144C04
:101F2000FF21002201312046FEF73FFF0022202141
:101F30002046FEF73AFF002208212046FEF735FF33
:101F4000092000226101C006FEF72FFF00221021A8
:101F50002046FEF72AFF074C002280212046FEF78C
:101F600024FF002240212046FEF71FFF10BD000085
:101F7000000400480014004870B50C460546FFF701
:101F8000CDFF012221462846FEF70FFF054C012216
:101F900080212046FEF709FF012240212046FEF75E
:101FA00004FF70BD00140048F8B501229203811AA5
:101FB0009611554D5700554C904249D024DC544B56
:101FC000C21A591098425FD00FDCFF38401E44D02F
:101FD000FF38401E43D0FF38FF38801E41D0884272
:101FE00035D180232246102146E0FF3AFF3A921E67
:101FF0004ED0501A44D0FF38401E43D0FF38FF382F
:10200000022824D1402344E0052000030A1A81421B
:1020100034D00EDC3F48091A2BD0091A27D00322EE
:102020001203891A16D0814211D180232246202121
:1020300022E0C7200003101A59D023210904401AB6
:102040002ED003210905884201D100F065F8F8BDC2
:10205000314600E02021284606E01021FBE7082158
:10206000F9E709203946C006FFF786FFF8BD40238F
:1020700000E080232246314628460EE04023D5E783
:102080004023AFE7402300E0802322460821F3E706
:102090008023092022463946C00600F05FFEF8BDC5
:1020A000FFF73CFF012231462846FEF77EFE642002
:1020B00000F0F4F8012220212846FEF776FE642085
:1020C00000F0ECF8012210212846FEF76EFE642095
:1020D00000F0E4F8012208212846FEF766FE64209D
:1020E00000F0DCF8012209203946C00609E0FFF7BC
:1020F00015FF012280212046FEF757FE01224021D4
:102100002046FEF752FEF8BD0004004800140048C7
:10211000000A000000080000F8B52B4C0122110253
:102120002046FEF742FE012220212046FEF73DFE1A
:10213000012208212046FEF738FE09260122F60674
:10214000D1033046FEF731FE012210212046FEF772
:102150002CFE012280211D48FEF727FE012240218E
:102160001A48FEF722FE7D20C00000F097F80022FA
:1021700080211648FEF719FE002240211348FEF781
:1021800014FE7D25ED0003273F0518E0FF210131F6
:102190002046FEF702FE20212046FEF7FEFD082124
:1021A0002046FEF7FAFD0121C9033046FEF7F5FD92
:1021B00010212046FEF7F1FD284600F06FF800F0F0
:1021C000F1F8B842E2D1F8BD00040048001400481C
:1021D000FEF700FEFFF7BAFBFFF7D8FAFFF7A2FA07
:1021E00025482449016000240521846041607D2147
:1021F000C9008461C160FFF729F9002801D072B6D7
:10220000FEE71D481D49483001602F218460416070
:10221000046164218461C160FFF718F9002801D0CE
:1022200072B6FEE700F054F8154A0021154800F098
:1022300073F9154C124A206024320021134800F033
:102240006BF90F4A606048320021114800F064F9D0
:102250000B4AA0606C3200210E4800F05DF9084A7C
:10226000E060903200210C4800F056F9206100F047
:1022700049F8FEE700100040E00000200020004088
:10228000403C0008FD1600080C0000206D06000808
:10229000ED180008A10600083907000810B5EFF393
:1022A000058100290ED1EFF31081002903D00749E1
:1022B0000968022906D00024002801D000F060FE41
:1022C000204610BD0524E443FAE70000800000200A
:1022D000EFF3058000280CD1EFF31081084A0029A4
:1022E000106801D0022804D0002805D00020C04387
:1022F00070470520C04370470120106000207047E0
:102300008000002010B5EFF3058000280CD1EFF31A
:1023100010810A4A0029106801D0022804D001283F
:1023200005D00020C04310BD0520C04310BD0220D1
:10233000106000F075FE002010BD0000800000203D
:10234000F8B50546EFF3058000280CD1EFF31080B7
:10235000002803D012480068022804D0002D05DAB6
:102360000324E4431AE00524E44317E001F0C0F934
:10237000002207466B46114601F006F90026F64397
:1023800001280AD1009C00232146A9430322384694
:10239000009101F0F9F8012800D034462046F8BD3C
:1023A0008000002008B5EFF30580002814D1EFF37A
:1023B0001080002803D00B48006802280CD001F0E0
:1023C00097F900226B46114601F0DEF8012806D08D
:1023D0000020C043009008BD0520C043FAE70098E4
:1023E00008BD0000800000203EB5040001D0002997
:1023F00003DA0320C043019018E019480190EFF37D
:102400000580002814D1EFF31080002803D0154870
:10241000006802280CD000230122204601F0B4F805
:10242000002201AB1146204601F0AEF801983EBDF6
:10243000002502A800902B4601220295204601F0BB
:10244000F5F8002201AB11462046009501F0EEF8A8
:1024500002980028EAD00120034900074860E5E718
:10246000FFFFFFFF8000002000ED00E0F7B584B023
:1024700016460546EFF3058000280CD1EFF31080D7
:10248000002803D023480068022804D0002D05DA74
:102490000324E4431DE00524E4431AE00598800783
:1024A00002D50020019000E001950024009601F083
:1024B00035F9E71E039002AA0020009B019901F064
:1024C00091F9012808D0002E22D00124E4430028ED
:1024D000F1D1204607B0F0BD02982C400443059886
:1024E000C00728460CD0A043F3D0002E0BD001F03B
:1024F00015F90399401A0099884206D9002005E091
:102500002042E6D1F1E73C46E3E7081A0090D2E723
:102510003C46DCE780000020F0B585B08C46002307
:10252000EFF30581039300294AD1EFF310810029CD
:1025300003D024490968022942D0002840D0002352
:102540006C4640251821237404AC002A2CD0136853
:10255000002B00D01C469369002B03D019465B1E4C
:10256000382B02D21379DB0702D0002005B0F0BD72
:102570005669002E00D0B5089768D368002F0ED09A
:10258000682B1DD31269002A1AD0002E18D06E466F
:1025900086C663462A46214600F0D3FF0FE0002B93
:1025A0000ED11269002A0BD103AA01920091AAB29E
:1025B0006346214600F09CFF012801D000200390D3
:1025C0000398D3E780000020F8B5134C0F466669E6
:1025D00005462068001D00F0FDFB681C07D1002F98
:1025E00005D021680D48091D00F042FCF8BD2068A7
:1025F000751945602168B54204D2A068091D00F034
:102600001FFCF8BD6068091D00F01AFC206B8542B4
:10261000F7D22563F8BD000030000020A806002096
:10262000F8B5054600F030FC294C2069401C2061BB
:102630002068284F002803D0E069002825D02AE030
:1026400025602069012826D1002614207043C01976
:1026500000F0E8FB761C382EF7D31F4800F0E2FBB1
:102660001D48143000F0DEFB1B48283000F0DAFB78
:1026700019483C3000F0D6FB1748503000F0D2FB30
:10268000154860601430A06005E02068E96AC06AFF
:10269000884200D82560E06A401CE0622865E86A4C
:1026A000A169884200D9A06114214843C019291D9D
:1026B00000F0DEFB00F0F4FBE069002806D02068A3
:1026C000E96AC06A884201D200F01AFCF8BD000035
:1026D00030000020F80100205806002038B500F036
:1026E000D3FB114CA06800281AD1104800F09AFBC7
:1026F0000E48143000F096FB0C48206014300B4B51
:102700006060002028331A460090503210210A20C1
:1027100000F016FDA060002802D005A100F0FCFB2F
:1027200000F0BEFB38BD00006C000020BC0600209D
:10273000546D72510000000010B5026C0C46002A66
:102740000CD0C1688B18C36041688B4201D2194616
:1027500001E00168C1602046FDF7F3FD10BDF8B54A
:10276000856B174604460026026C002A11D0002F04
:1027700019D0E068FDF7E5FDE168206C091AE16019
:102780002268914202D26168081AE060022F17D0D5
:1027900019E02068002816D1606801F061F806464B
:1027A000002060600FE0A068FDF7CBFD216CA06801
:1027B0004018A0606168884205D32068A06002E0EC
:1027C000002D00D06D1E6D1CA5633046F8BD10B500
:1027D000044660304079002805D0012806D0022840
:1027E00007D072B6FEE7206B00F068FB204600F0D1
:1027F00065FB10BD03210E488902420705D0C01DAC
:10280000C0080B4AC000821A891A0A4A00234118DC
:1028100009C20839C908C900183A11604B600B6039
:102820000B1A0AC093600120C0075360D060704744
:10283000A40B0020940000200F4E104C104F11E00C
:1028400000F022FBF068C568281D00F0C3FA20697B
:10285000401E2061E068401EE06000F021FB284639
:10286000FFF7B5FFE0680028EAD138680128F9D9F8
:1028700000F046FBF6E70000940600203000002040
:10288000F801002070B5049C1D46002909D0226083
:102890002164E0630121204600F072FC403425737E
:1028A00070BD2460F4E7FFB581B097000C9C0E4624
:1028B0000A9DA5223946206BFDF784FD206B3F1F42
:1028C000C019C708FF00780701D072B6FEE72218CA
:1028D000315C20321175315C002902D0401C19286E
:1028E000F5D300264C200655382D00D33725E56258
:1028F000E665201DA56500F0A0FA2046183000F01E
:102900009CFA24613820401B6462A0612666642022
:1029100006553846049A019900F010FA20600B9889
:10292000002800D0046005B0F0BD000030B51149AA
:1029300000E011460A688242FBD34B685C1884426F
:1029400003D1406818184860084643681C18944230
:1029500009D1084C103C2468A24209D052689A1848
:1029600042600A6812680260814200D0086030BD8F
:102970000460F9E79400002070B5002441600B4D1D
:102980000061914206D8D11A8269914206D2011D96
:10299000686807E09A4203D2994201D3012403E018
:1029A000011D286800F04CFA204670BD6C00002024
:1029B00010B5044600F068FAA06B002804D000248B
:1029C00000F06EFA204610BD0124F9E730B589B059
:1029D0002C4D4EE00498002806DA059A07990698CF
:1029E00090470498002844DB069C6069002802D0C8
:1029F000201D00F0EFF902A800F0A4F802460498A8
:102A00000300FFF749F80A06060636232F060636A6
:102A100023360598A169034641182046FFF7ACFF0D
:102A2000002826D0616A20468847E069012820D125
:102A3000002000900598A1690023421819462046FD
:102A400000F0F8FF002814D172B6FEE70598A061E7
:102A5000002805D0811813462046FFF78DFF08E0B7
:102A600072B6FEE72C20005D002802D1204600F05F
:102A700025FA002204A9A86800F08AFC0028A9D140
:102A800009B030BD6C000020FEB50F46054600F0D1
:102A9000FBFA01A800F056F804460198002802D07D
:102AA00000F044FFFEBD1E4E002F10D0706800687D
:102AB000002833D00027291B3A46B06800F03EFAC0
:102AC00000F034FF0028EDD100F01AFAFEBDA54257
:102AD000F1D800F02BFF30682746C068C468201D7D
:102AE00000F078F9E069012812D1A0692B4641195C
:102AF0003A462046FFF740FF002809D00020034651
:102B0000014600902A46204600F094FF002803D09A
:102B1000616A20468847FEBD72B6FEE70127CAE714
:102B20006C000020064841680968002905D041680A
:102B3000C968C9684968016370470021C943FAE759
:102B40003000002070B5054600F0E8FD064E044652
:102B50003069844203D200F009F8012000E000202F
:102B600028602046346170BD6C000020F8B5164D19
:102B700020E0C068C4680668201D00F02BF9616A77
:102B800020468847E069012814D1A0698019B04225
:102B900006D924616060211D286800F051F909E020
:102BA00000200346014600903246204600F042FFD6
:102BB000002807D0286801680029DAD169682960EF
:102BC0006860F8BD72B6FEE76C000020034800683C
:102BD000401C72B600D0FEE7FEE700009C0000201B
:102BE000074C20680168002907D0C06800210068F0
:102BF000FFF74AFFFFF7EAFEF3E701210020F7E7BE
:102C00006C000020F8B5044600F03EF9254640353A
:102C10000526AE57274624370BE0606A00280AD005
:102C2000384600F051FE002801D000F0C9F9761EA8
:102C300076B2002EF1DC0027FF436F7100F030F90F
:102C400000F022F90426AE572046103000900BE029
:102C5000206900280AD0009800F036FE002801D034
:102C600000F0AEF9761E76B2002EF1DC2F7100F086
:102C700017F9F8BD10B504490020096848620248F8
:102C8000FEF736FC10BD000028010020F8B505460F
:102C9000002700F0F9F9284E3068002801D1FFF72D
:102CA000A9FDF06805423FD1002D3DD008356807E9
:102CB00008D06807400F0821081A4519680701D095
:102CC00072B6FEE7002D2FD0706885422CD81A48C6
:102CD000103001460C6801E020460C466168A942AC
:102CE00002D221680029F7D131688C421CD00768D4
:102CF0002168016060680837411B102908D96019F4
:102D0000420701D072B6FEE741606560FFF70EFE34
:102D100061687068401A7060B268904200D2B0601A
:102D2000F0680143002003C400F000FE780701D0E2
:102D300072B6FEE73846F8BD8400002010B50124C5
:102D4000031F24061C601B1F1960191F024B0B6018
:102D5000143940380A6010BDCD2B0008FFB581B092
:102D60001E461746FFF7DAF8012202990198FEF78E
:102D70001CF87D25ED000124A40506E03146384607
:102D8000FEF70BF82846FFF789FAFFF70BFBA04286
:102D9000F4D1012202990198FEF707F80122314689
:102DA0003846FEF702F8FF25F5352846FFF776FA94
:102DB000002402990198FDF7F0FF31463846FDF7EF
:102DC000ECFF2846FFF76AFA641CE4B2052CF0D346
:102DD00005B0F0BD4368826801699A608368426803
:102DE0005A604A68824201D182684A6000220261C8
:102DF0000868401E0860086870470000034B0360C5
:102E0000184668300860402010607047D4070020E2
:102E1000034B0360184668300860802010607047DC
:102E20003C0900200146083100224160D243C160C4
:102E300082600161002101607047002101617047DB
:102E400030B50B685A1C02D00246083202E0026913
:102E500004E02246546825689D42FAD953684B60C5
:102E600099608A60516008610168491C016030BD49
:102E700042684A6093688B6093685960916008610A
:102E80000168491C0160704772B604480168491C1A
:102E90000160BFF34F8FBFF36F8F70479C0000201E
:102EA00005490868002804D0401E086000D162B6B9
:102EB000704772B6FEE700009C00002070B5002845
:102EC0001AD004460D4D083C6068E968084201D1FB
:102ED00072B6FEE72268002A01D072B6FEE7884388
:102EE000606000F0D1F8606869684018686020464A
:102EF000FFF71CFD00F01AFD70BD000084000020EB
:102F00000120044900074860BFF34F8FBFF36F8F64
:102F10007047000000ED00E010B5074B0022D40020
:102F20001C59002C03D0521C082AF8D310BDD20023
:102F30009950D118486010BDB801002070B51546F1
:102F40000E460446FFF7A0FF20464030042282567A
:102F50000021521C00D1017105228256521C00D161
:102F60004171FFF79DFFA06B002805D120462A463E
:102F70003146243000F03CF82046FFF743FE70BD98
:102F800010B502000FD00948806B002801D072B63E
:102F9000FEE700F079F800211046FFF715FB00F07E
:102FA000C5FC002801D1FFF7ABFF10BD30000020A9
:102FB00002498A6A02604969416070473000002016
:102FC00001490120486270473000002010B50C46CE
:102FD000002809D0054909681831FFF731FF0121A0
:102FE0002046FFF7F1FA10BD72B6FEE73000002070
:102FF00070B514460D4600280DD0084909681831EF
:10300000FFF736FF002C01D00025ED43214628466E
:10301000FFF7DAFA70BD72B6FEE70000300000205C
:1030200030B587B00024039405AA04A903A804942A
:10303000FFF7E4FE049903980094019102900023A5
:103040000DA10F48059A00F07CFA0E4D0028686328
:1030500010D000F0C3FC012803D0401C0AD172B686
:10306000FEE772B60020C04328630120E8616C616E
:1030700000F03EF807B030BD49444C450000000068
:1030800039280008300000200248816B491C816308
:10309000704700003000002010B51348816B0029F4
:1030A00002D00121416210BD0021416281690F4AB5
:1030B00002E0002915D0491E14234B43D358002B9E
:1030C000F7D014234B439A18536814465B680834AE
:1030D0005360A34201D15B685360DA68026081618A
:1030E00010BD72B6FEE7000030000020F80100209D
:1030F00070B50F48016AFF22120411430162016A90
:103100001202114301620B4C00252561A5610A489A
:103110007D21C9000068FDF77EF9401E606107202F
:10312000206106480560FDF717F8002070BD00001B
:1031300000ED00E000E000E02C0000209C000020FA
:10314000F8B5069D002806D0002B06D0002A08D02E
:10315000002904D009E072B6FEE772B6FEE772B647
:10316000FEE7002901D072B6FEE750241C46012676
:1031700040339E712B460094FFF784FB2046F8BD38
:1031800070B50D46040025D0FFF77EFE216CE06B84
:1031900048432168411861600021A1632168A16052
:1031A000E06B216C401E484321684118E16000211A
:1031B000C94320464030017141713038002D0BD099
:1031C000FFF730FE20462430FFF72CFEFFF768FEA5
:1031D000012070BD72B6FEE721690029F6D000F02B
:1031E00073FB0028F2D0FFF78BFEEFE7FFB5002658
:1031F00083B01D46040003D00498002802D006E0E6
:1032000072B6FEE7206C002801D072B6FEE7022DF0
:1032100004D1E06B012801D072B6FEE700F06EFA2F
:103220000027002804D10598002801D072B6FEE7D7
:10323000FFF72AFEA06BE16B884207D3022D05D071
:103240000598002817D0002E18D01BE02A462046EB
:103250000499FFF784FA616A002903D020462430DC
:1032600000F032FB002801D0FFF74AFEFFF718FEFE
:10327000012007B0F0BDFFF713FE22E06846FFF71C
:1032800097FE0126FFF70CFEFFF7FEFEFFF7FCFDA1
:103290002046403004214156491C00D107710521C8
:1032A0004156491C00D14771FFF7FAFD05A9684650
:1032B00000F0F0F8002806D02046FFF7A3FC00F04D
:1032C00035FB0020D5E7FFF7DFFDA06BE16B8842FF
:1032D00010D1FFF7E5FD204610300599FFF776FE87
:1032E0002046FFF78FFC00F021FB0028A0D1FFF75C
:1032F00007FE9DE7FFF7D4FD2046FFF783FC00F0B3
:1033000015FB95E7FFB581B01E46040003D0029877
:10331000002802D006E072B6FEE7206C002801D03B
:1033200072B6FEE7022E04D1E06B012801D072B61E
:10333000FEE7FCF725FF0090A06BE16B884208D305
:10334000022E06D000240098FCF71EFF204605B090
:10335000F0BD2046403005254557074632462046F9
:103360000299FFF7FCF9681C03D06D1C7D710124E4
:10337000E9E7606A0028FAD02046243000F0A4FA79
:103380000028F4D003980028F1D001210160EEE775
:10339000F7B5002582B0040003D00398002802D0BE
:1033A00006E072B6FEE7206C002801D072B6FEE798
:1033B00000F0A4F90026002804D10498002801D0C8
:1033C00072B6FEE7FFF760FDA76B002F15D0204611
:1033D0000399FFF7B1F97F1EA7632069002807D082
:1033E0002046103000F070FA002801D0FFF788FD69
:1033F000FFF756FD012005B0F0BD0498002802D06B
:10340000002D03D006E0FFF74BFD27E06846FFF7ED
:10341000CFFD0125FFF744FDFFF736FEFFF734FD32
:103420002046403004214156491C00D10671052137
:103430004156491C00D14671FFF732FD04A9684688
:1034400000F028F8002820460AD0FFF7DBFB00F048
:103450006DFA2046FFF7ACFA0028B3D00020CAE787
:10346000FFF7A6FA00280ED0204624300499FFF773
:10347000ADFD2046FFF7C6FB00F058FA0028A1D1A9
:10348000FFF73EFD9EE72046FFF7BCFB00F04EFA3B
:1034900098E70000F8B50C46050012D0002C12D0B9
:1034A000FFF7F2FC114B5A696E682068911B471CAC
:1034B0000BD02F689B6A9F420CD096420AD80124F9
:1034C00004E072B6FEE772B6FEE70024FFF7E8FC00
:1034D0002046F8BD884205D9401A20602846FFF7EB
:1034E00067FDF2E700202060E9E7000030000020DF
:1034F000FFB585B0164690000F9FFFF7C7FB05008C
:103500001CD06820FFF7C2FB040014D00020652106
:10351000256308550E990091039001970294324655
:10352000089B06990598FFF7BEF92046FFF778F843
:10353000012009B0F0BD2846FFF7C0FC0020C043C1
:10354000F7E7F0B585B007460B9D0C9C0A98002D57
:1035500015D0002C15D06826256302256526355523
:10356000002504AE00900196039502943846FFF7BB
:103570009AF92046FFF754F8049805B0F0BD72B6EA
:10358000FEE772B6FEE70000FFB5012681B01F46D8
:103590000D46002814D00446FFF776FC002F01D01A
:1035A000206E3860204660300146007902220A71A0
:1035B00003990B00FEF770FA051006090F0D1000B5
:1035C00072B6FEE7216E294301E0216E491C216697
:1035D00002E0022803D02566012802D01DE0002663
:1035E0001BE0201DFFF7F6FB0E4DE06AA96988423B
:1035F00000D9A861142148430B494018211DFFF749
:1036000037FCA06A002801D072B6FEE7E06A29689C
:10361000C96A884201D9FFF773FCFFF741FC3046C5
:1036200005B0F0BD30000020F8010020FFB50126F4
:1036300081B01F460D46002815D00446FCF7A0FDBA
:103640000090002F01D0206E386020466030014687
:10365000007902220A7103990B00FEF71DFA05108A
:1036600006090F0D100072B6FEE7216E294301E036
:10367000216E491C216602E0022803D0256601283C
:1036800002D029E0002627E0A06A002801D072B607
:10369000FEE7144DA86B002803D0214618311248CC
:1036A0000CE0201DFFF796FBE06AA969884200D96B
:1036B000A861142148430D494018211DFFF7D8FB8C
:1036C000E06A2968C96A884206D90A990120002956
:1036D00001D0086000E068620098FCF755FD3046B4
:1036E00005B0F0BD3000002080060020F801002069
:1036F0000148006870470000300000200648C1699A
:10370000002904D0806B002803D0002070470120DE
:1037100070470220704700003000002001484069D7
:103720007047000030000020F8B52C4C0027A06B3B
:10373000002808D0206A401C2062606A002800D05F
:1037400001273846F8BD6669761C66610ED160684F
:103750000068002801D072B6FEE76068A168616069
:10376000A060A06A401CA062FFF7DCF9206B8642D3
:103770000AD360680068002810D06068C068C56817
:10378000686886420DD2206320681421C06A4843CD
:10379000134908580128D0D90127CEE70020C0439B
:1037A000F1E7281DFFF716FBA86A002803D028467A
:1037B0001830FFF70FFBE86AA169884200D9A061C1
:1037C0001421484306494018291DFFF751FBE86AB8
:1037D0002168C96A8842CCD30127CAE7300000209B
:1037E000F8010020FFB581B01E4615460746FFF7D9
:1037F0004BFB1A4C20686030007902280ED02068FC
:10380000016EB94301662068012160300171002E0C
:1038100004D03046FEF7D8FEFFF772FBFFF740FBFF
:10382000FFF732FB002D02D02068006E2860206870
:1038300060300079022801D0002505E02068016E83
:10384000029A9143016601252068002160300171D0
:10385000FFF726FB284605B0F0BD00003000002031
:1038600070B500210446002828D0154D28688442F0
:1038700001D072B6FEE7E06D002808D0401EE0657A
:10388000A36DE26A9A4219D0002802D016E072B6FF
:10389000FEE7201DFFF79EFAA06D3821E062081AAE
:1038A000A061E06AA969884200D9A861142148434F
:1038B00004494018211DFFF7DBFA0121084670BDBD
:1038C00030000020F801002070B5C068C468002CEA
:1038D0000BD0204618300646FFF77CFA104DA86B37
:1038E000002804D031460F480EE072B6FEE7201DD6
:1038F000FFF770FAE06AA969884200D9A86114212B
:10390000484309494018211DFFF7B2FAE06A2968C7
:10391000C96A884202D90120686270BD002070BD6A
:103920003000002080060020F8010020F8B5284C67
:103930000025A06B2E46002808D0FFF7A5FAA06B43
:10394000401EA063A06B002802D03CE072B6FEE7E8
:103950002169204F00291CD135E0F868C568284648
:103960001830FFF737FA281DFFF734FAE86AA16923
:10397000884200D9A0611421484317494018291DE5
:10398000FFF776FAE86A2168C96A884201D3012004
:10399000606238680028E0D1002D01D0FFF7C2F83E
:1039A000256A002D09D00127FFF7BEFE002800D0B0
:1039B00067626D1EF8D100202062606A002802D084
:1039C0000126FFF79DFAFFF76BFA3046F8BD0000BD
:1039D0003000002080060020F801002010B586B0DD
:1039E000FEF77CFE0F4CA068002819D00020039041
:1039F000049005AA04A903A8FFF70AFA0220039A73
:103A00000499009002920191002307A10848059AA9
:103A1000FFF797FDE060002802D0012006B010BD3E
:103A200072B6FEE76C000020546D7220537663007E
:103A3000E12B0008F0B51D4685B0034600200A9E24
:103A4000002B13D00F4CA768002F0DD068460EC076
:103A5000062910DAFFF752FE022809D000231A4681
:103A60006946A068FFF7C2FB05B0F0BD72B6FEE77D
:103A700000233246F4E700232A4669463846FFF71A
:103A800041FCF1E76C00002010B5034901200870EB
:103A9000FEF742F810BD000008000020860F7F0FDF
:103AA000790F720F6A0F620F590F4E0F420F350FC9
:103AB000250F1C0F110F050FF80EEA0EDA0EC80EB7
:103AC000B40E9D0E820E730E620E500E3C0E260E2C
:103AD0000E0EF30DD50DB40D8F0D780D600D460D46
:103AE0002A0D0B0DEA0CC60C9E0C720C410C0A0C34
:103AF000E50BBF0B950B670B420B190BEE0AC00AC7
:103B00008F0A680A3E0A120AE309B10989095F09A6
:103B100033090409D308A9087E0850082008EC07D7
:103B2000C5079B076F0741071107EA06C2069906FA
:103B30006E0641061C06F705D005A8057E055C0546
:103B400039051505F004CA04AC048D046D044C0459
:103B500023040F04F303D703BA039C0384036B030A
:103B60005303390320030A03F502DF02C902B3023B
:103B7000A0028D027B026702540244023402240236
:103B80001402F501E701D901CB01BD01AF01A30189
:103B900098018C01800175016B01600157014D0195
:103BA00042013A01310129012001170110010901E7
:103BB0000101FA00F300EC00E600DF00D900D300B9
:103BC000CD00C800C300BD00B800B300AE00AA001D
:103BD000A500A0009C009800950091008D00890030
:103BE000860082007F007B007800750072006F0005
:103BF0006C006A006700640061005F005D005A00AD
:103C0000580056005400520050004E004C004A002C
:103C10004900470045004400420040003F003E008C
:103C20003C003B003A0038003700350034003300D8
:103C30003200310030002F002E002D002C002A0011
:103C4000183D000800000000000000000000000017
:103C5000000000000001000018000000000000004B
:103C600000000000283D00080000000000000000E7
:103C7000000000000000000000010000180000002B
:103C800000000000000000000C3D000800000000E3
:103C90000000000000000000000000000004000020
:103CA0001800000000000000000000003C3D00087B
:103CB0000000000000000000000000000000000004
:103CC00000010000180000000000000000000000DB
:103CD000503D00080000000000000000000000004F
:103CE00000000000000100001800000000000000BB
:103CF00000000000000000000000000001020304BA
:103D00000607080900000000010203046D61696EE6
:103D10007461736B000000006C656468616E646CB4
:103D200065727461736B0000627574746F6E6861A4
:103D30006E646C65727461736B00000062757A7AF0
:103D4000657268616E646C65727461736B0000000B
:103D50006572726F7268616E646C65727461736BA8
:103D600000000000843D000800000020A0000000CA
:103D7000F8000008243E0008A0000020681D000094
:103D80001401000800000000000000000000000016
:103D90000000000000000000000000000000000023
:103DA000000000000100000004000000000000000E
:103DB00000127A0000000000000000000000000077
:103DC00000000000000000000000000000000000F3
:103DD00000000000000000000000000000000000E3
:103DE00000000000000000000000000000000000D3
:103DF00000000000000000000000000000000000C3
:103E000000000000000000000000000000000000B2
:103E100000000000000000000000000000000000A2
:043E2000AAAAAAAAF6
:04000005080000B53A
:00000001FF
